:100000008A11C32C00308A000408840A8207003455
:0A00100001340034003400340434DD
:10096C00051DB62C0519B82C08003930F000C03024
:10097C00F1008A1173258A110800AF01B001B10191
:10098C00B201B301B401B501B60183018A112A2F5A
:10099C00F0007008831203178D00831603178C1355
:1009AC000C14831203170C08DB2C08000130F00028
:1009BC00C030F1008A1173258A110030F000C43068
:1009CC00F1008A1173258A110800F0007008031DCC
:1009DC00F02CF52C7030831603138F00F92C831632
:1009EC0003138F01F92C0800F000051DFB2C0519D1
:1009FC00FD2C7018022D062D831203130716092DDA
:100A0C008312031307120800003083120313B3057B
:100A1C000030B4050030B505871D152D162D1B2D86
:100A2C00360800390138B6001E2D0030B6051E2DD3
:100A3C000800F20000308A11CE248A11F1007208ED
:100A4C00840071088313800001308A11CE248A112E
:100A5C00F100720A8400710883138000352D0800A0
:100A6C00831203179E019F01FC308316031385002C
:100A7C003F3086008F3087008312031715168316BC
:100A8C000313811383120313871686170613071299
:100A9C000530900005140800F2000830F1007108D0
:100AAC00F300692DF21F5B2D5C2D612D01308A1135
:100ABC00FA248A11662D00308A11FA248A11662DC7
:100ACC000310F20D692D0130F3027308FF3A031D78
:100ADC00702D712D582D722D08001030F2007208F7
:100AEC00F3008312031387120613902DF11F7F2D31
:100AFC00802D822D8617832D86130617852D831244
:100B0C000313061301300310F00DF10DFF3E031D0E
:100B1C00892D902D0130F3027308FF3A031D972D98
:100B2C00982D7C2D87160800F2007208831203178B
:100B3C008D0070088C00831603178C130C150B0892
:100B4C00F1007108F3008B0155308D00AA308D0037
:100B5C008C1473088B000000B42D00008312031357
:100B6C000D1EB92DBA2DB32D831603170C1183123C
:100B7C0003130D120800F2000830F1007108F300A5
:100B8C00E02DF21FCA2DCB2DD42D01308A11FA2461
:100B9C008A1100308A11FA248A11DD2D00308A1155
:100BAC00FA248A1101308A11FA248A11DD2D0310DE
:100BBC00F20DE02D0130F3027308FF3A031DE72D0F
:100BCC00E82DC72DE92D0800F600831203130F083A
:100BDC000F39F500760884007508831380007408BB
:100BEC00031DF92DFC2D7608840000170E08F50066
:100BFC00760A840075088000760884000008F500E9
:100C0C007508F00000308A119A258A11760A840042
:100C1C0083130008F5007508F00001308A119A253D
:100C2C008A11182E08000030F000CC30F1008A1127
:100C3C0073258A11F030F0008830F1008A11732589
:100C4C008A115730F000C830F1008A1173258A11CF
:100C5C004030F000D230F1008A1173258A11343003
:100C6C00F000A630F1008A1173258A112030F000B3
:100C7C00C230F1008A1173258A110130F000C030A6
:100C8C00F1008A1173258A110800FB007B0884008F
:100C9C0083138017FA011D307A02031C562E572E2F
:100CAC00592E782E782E7B088A1183268A11403093
:100CBC008312031387060530F9000F30F800F43067
:100CCC00F700F70B672EF80B672EF90B672E013028
:100CDC00F7007708FA071D307A02031C762E772E60
:100CEC00592E782E7F30F7007B0884007708831309
:100CFC0080058312031307130800F5008A11BB2427
:100D0C008A114230F400F40B892E0000AA308A11AB
:100D1C0052258A112D308A1152258A11D4308A110C
:100D2C0052258A11F60109307602031C9E2E9F2E45
:100D3C00A12EB62EB62E76087507F4007408840022
:100D4C00831300088A11C1258A110130F40074083C
:100D5C00F60709307602031CB42EB52EA12EB62E42
:100D6C008A11B6248A118A11DC248A110800FC002D
:100D7C00F401F40A7C088A11EA258A117C08023EE7
:100D8C00840083138001831203132008A5007C08C0
:100D9C00033E84002508800000302105A5000030AA
:100DAC002205A60000302305A700FF302405A8006B
:100DBC0018300310A80CA70CA60CA50CFF3E031DA5
:100DCC00DF2E2508A9007C08043E84002908800039
:100DDC002108A5002208A6002308A7002408A800C3
:100DEC0010300310A80CA70CA60CA50CFF3E031D7D
:100DFC00F72E2508A9007C08053E840029088000F0
:100E0C002108A5002208A6002308A7002408A80092
:100E1C0008300310A80CA70CA60CA50CFF3E031D54
:100E2C000F2F2508A9007C08063E840029088000A5
:100E3C002108A5007C08073E8400250880007C085A
:100E4C008A114B268A11080001308A11EB248A1171
:100E5C008312031307138A1136258A118A11192656
:100E6C008A1183120313AE0108302E02031C3F2F8C
:100E7C00402F422F522F522F2E082F3E84008313C7
:100E8C0080010130AA002A08AE0708302E02031C8C
:100E9C00502F512F422F522F2F308A111F258A117C
:100EAC00053084008A1102208A1183120313AA00D0
:100EBC0032082A0600392A06B200AE0114302E027E
:100ECC00031C692F6A2F6C2F872F872F0230AC00E1
:100EDC000430AB00BA30AA00AA0B722FAB0B722FE6
:100EEC00AC0B722F0000013083120313AA002A08E6
:100EFC00AE0714302E02031C842F852F6C2F872FE6
:100F0C00872F01308A11EB248A11831203130717E0
:100F1C008A110A258A112F308A1183268A1183128D
:100F2C000313071300308A11EB248A118312031365
:100F3C00AE0114302E02031CA42FA52FA72F872F30
:100F4C00872F0B30AB006230AA00AA0BAB2FAB0B78
:100F5C00AB2F000083120313061AB52FB62FBB2F2D
:100F6C000130AA002A08AD07BD2FAD01BD2F0530F9
:100F7C002D02031CC22FC32FEF2F01308A11EB243B
:100F8C008A11053084008A1102208A1183120313FE
:100F9C00AA002A08A000013084008A1102208A11BC
:100FAC00A1008A1102208A11A2008A1102208A1142
:100FBC00A3008A1102208A11A4002F308A11BD26A9
:100FCC008A1183120313AD0100308A11EB248A11AC
:100FDC00EF2F013083120313AA002A08AE07143036
:100FEC002E02031CFA2FFB2FA72F872F872F872F5B
:040FFC008A1100282E
:02400E00E4F0DC
:00000001FF
